:060000000A128A11122809
:10000800FE00030EF0000408F1000A08F200831253
:1000180003137F08F3000A128A11472A0A128A1169
:1000280015280A128A1152220A128A11F8000A1295
:100038008A115322F900AA01AB01AC01F501F601BE
:10004800F70183010A128A1129283C308316031309
:100058008F00831603178801890108082130831649
:1000680003138500F0308600D93087008801831299
:100078000313850109308600071187100F309D0092
:100088000A128A1112220A128A119B30831603134C
:10009800920007308312031392008C1040308316AD
:1000A800031394003430831203139400831603134C
:1000B8009F01C130831203139F002830831203135A
:1000C800A700A70B65286828831603139E018312CF
:1000D80003139E01F7010A128A1135220A128A11A6
:1000E8007603031D80280A128A1107210A128A1131
:1000F8007603031D8028F60102307606031DD028FA
:100108000A128A11D5210A128A11F701F70A770310
:10011800031D94280A128A114F210A128A118B286A
:100128000A128A1135220A128A110A128A11952195
:100138000A128A11023A0319A628033083120313FC
:100148008800992801308312031388000230831233
:100158000313A9004530A800A930A700A70BB228AF
:10016800A80BB228A90BB228023083120313A700E8
:100178002708F70002307706031DC8280A128A11DB
:100188004F210A128A11BE280230831203138800F5
:10019800023076060319F60104307606031DE228BC
:1001A80014307906031DE228023083120313A700D6
:1001B8002708F700043076060319F601033076069F
:1001C800031DF0284D307906031DF028F701F70AC2
:1001D800033076060319F60177030319F72802306E
:1001E8007706031DFC280A128A114F210A128A1168
:1001F80083160313141C6F28831203131308A70014
:100208002708F6006F28033083120313A000200884
:10021800F4007408031908000330831203138600DE
:10022800213083120313A1007530A000A00B1A29F6
:10023800A10B1A291F2906308312031386002130C7
:1002480083120313A1007530A000A00B2929A10B6C
:1002580029292E290C30831203138600213083129A
:100268000313A1007530A000A00B3829A10B382971
:100278003D290930831203138600213083120313AA
:10028800A1007530A000A00B4729A10B47294C29D4
:100298000130F4020D297703031D732901308312FD
:1002A8000313A2002208F9070A128A1112220A125D
:1002B8008A11113083120313A3003930A200A20B54
:1002C8006329A30B632968294E307906031D732916
:1002D800F7014D3083120313A2002208F9000230FF
:1002E8007706031D08000130F9020A128A1112224A
:1002F8000A128A11113083120313A3003930A200A5
:10030800A20B8429A30B8429892913307906031D9C
:100318000800F701143083120313A2002208F90021
:10032800080083120313A401A3019F14831203136B
:100338000C1F9A290C131E08A0002008A400750899
:10034800033EA000003003180130A1002108803AC4
:10035800A20080302202031DB329240820020318BA
:10036800B92983120313A301A30A7508FA3E83125D
:100378000313A000FF3003180030A1002108803AC1
:10038800803C031DC929200824020318D129023002
:1003980083120313A0002008A30083120313230869
:1003A80008000C3083120313970078080139A50060
:1003B800A50E17082506EF39250697007808A50029
:1003C8000310250C0139A600A60EA60D170826064F
:1003D800DF39260697007808A50002300310A50C1F
:1003E800FF3E031DF229250895000A128A1195215E
:1003F8000A128A11013A03190D2A093083120313CC
:10040800A6001B30A500A50B072AA60B072A0C2A55
:10041800F929831203139701071108007908013994
:1004280083120313A000A00E1D082006EF39200632
:100438009D007908A0000310200C0139A100A10E2D
:10044800A10D1D082106DF3921069D007908A000AD
:1004580002300310A00CFF3E031D2D2A20089B002C
:10046800080083120313A0019F14831203130C1FA7
:10047800392A0C131E08F4007408A0002008F400A0
:100488007408F50008007308FF0072088A007108F4
:100498008400700E8300FE0E7E0E0900C8341434EA
:04400E00F4E0FFFFDC
:00000001FF
