:060000000A128A11122809
:10000800FE00030EF1000408F2000A08F300831250
:1000180003137F08F4000A128A11A0290A128A1110
:1000280015280A128A11B9210A128A11F8000A122F
:100038008A11BA21F900A501F501F601F70183013A
:100048000A128A1127283C30831603138F0083165F
:10005800031788018901F030831603138600D9300D
:10006800870088010930831203138600071187105F
:100078000F309D000A128A117D210A128A119B30C5
:1000880083160313920007308312031392008C1017
:100098004030831603139400343083120313940002
:1000A800F6018312061A5D28750303195D2867286F
:1000B8000608061A5C280A128A11BB200A128A113D
:1000C80075030319F50183120313861B6F28023089
:1000D8007506031D7A28861B6F280A128A11492182
:1000E8000A128A11023075060319F50183120313E7
:1000F800861A862803307506031D8E281430790663
:10010800031D8E28861A8628F601F60A033075061E
:100118000319F501061B982803307506031DA2284C
:100128004D307906031DA228061B98280230A4002A
:100138002408F600033075060319F5017603031940
:10014800A92802307606031DAE280A128A11032157
:100158000A128A1183160313141C552883120313D9
:100168001308A4002408F5007508880055280330F2
:1001780083120313A0002008A20022080319080014
:1001880003308600213083120313A1007530A000CC
:10019800A00BCC28A10BCC28D1280630831203133E
:1001A8008600213083120313A1007530A000A00B34
:1001B800DB28A10BDB28E0280C3083120313860010
:1001C800213083120313A1007530A000A00BEA2888
:1001D800A10BEA28EF280930831203138600213087
:1001E80083120313A1007530A000A00BF928A10BFE
:1001F800F928FE28013083120313A202C1287603CE
:10020800031D2729013083120313A2002208F907CE
:100218000A128A117D210A128A11113083120313DE
:10022800A3003930A200A20B1729A30B17291C29F8
:100238004E307906031D2729F6014D30831203132A
:10024800A2002208F90002307606031D08000130DA
:10025800F9020A128A117D210A128A1111308312B9
:100268000313A3003930A200A20B3829A30B3829A5
:100278003D2913307906031D0800F6011430831256
:100288000313A2002208F90008000C30831203139C
:10029800970078080139A000A00E17082006EF394A
:1002A800200697007808A0000310200C0139A1004F
:1002B800A10EA10D17082106DF392106970078083D
:1002C800A00002300310A00CFF3E031D6629200881
:1002D8009500A33083120313A1005430A000A00B93
:1002E8007329A10B732900008312031397010711C7
:1002F80008007908013983120313A000A00E1D0815
:100308002006EF3920069D007908A0000310200C74
:100318000139A100A10EA10D1D082106DF39210612
:100328009D007908A00002300310A00CFF3E031DB9
:10033800982920089B0008000C1FAE290C131E08E2
:10034800F0007008A5005330F000F00BA9298312C3
:1003580003139F147408FF0073088A00720884004E
:0E036800710E8300FE0E7E0E09006434143404
:04400E00F4E0FFFFDC
:00000001FF
