:060000000A128A11122809
:10000800FE00030EF1000408F2000A08F300831250
:1000180003137F08F4000A128A11192A0A128A1196
:1000280015280A128A1147220A128A11AC000A12EC
:100038008A114622F900AA01AB01F501F601F70180
:10004800F80183010A128A1129283C308316031308
:100058008F00831603178801890108080130831669
:1000680003138500F0308600D93087008801831299
:100078000313850109308600071187100F309D0092
:100088000A128A11F6210A128A119B308316031369
:10009800920007308312031392008C1040308316AD
:1000A8000313940034308312031394008B170B1737
:1000B800831603130C179F01C130831203139F008B
:1000C800283083120313A700A70B68286B28831610
:1000D80003139E01831203139E01F7010A128A116A
:1000E80032220A128A110A128A11CE210A128A11A0
:1000F80083120313A7002708F500061A8828760339
:100108000319882892280608061A87280A128A11CD
:10011800FF200A128A1176030319F60183120313CA
:10012800861B9A2802307606031DA528861B9A2866
:100138000A128A118D210A128A11023076060319D1
:10014800F60183120313861AB42803307606031DBA
:10015800B128143079060319B42875030319BC288B
:10016800861AB428F701F70A033076060319F60150
:10017800061BC92803307606031DC6284D307906AC
:100188000319C9287503031DD328061BC928023083
:10019800A7002708F700033076060319F60177034E
:1001A800031DE928033083120313A9008A30A8002D
:1001B8005530A700A70BDE28A80BDE28A90BDE28E0
:1001C8000A128A1147210A128A1102307706031D82
:1001D800F2280A128A1147210A128A118316031378
:1001E800141C7228831203131308A7002708F600AB
:1001F800760888007228033083120313A0002008B1
:10020800A200220803190800033086002130831257
:100218000313A1007530A000A00B1029A10B102911
:100228001529063083120313860021308312031325
:10023800A1007530A000A00B1F29A10B1F2924299C
:100248000C30831203138600213083120313A1009C
:100258007530A000A00B2E29A10B2E2933290930B7
:10026800831203138600213083120313A100753013
:10027800A000A00B3D29A10B3D2942290130831282
:100288000313A20205297703031D6B29013083128A
:100298000313A2002208F9070A128A11F6210A128A
:1002A8008A11113083120313A3003930A200A20B64
:1002B8005B29A30B5B2960294E307906031D6B2946
:1002C800F7014D3083120313A2002208F90002300F
:1002D8007706031D08000130F9020A128A11F62177
:1002E8000A128A11113083120313A3003930A200B5
:1002F800A20B7C29A30B7C29812913307906031DC5
:100308000800F701143083120313A2002208F90031
:1003180008000C308312031397002C080139A5003C
:10032800A50E17082506EF39250697002C08A50005
:100338000310250C0139A600A60EA60D17082606DF
:10034800DF39260697002C08A50002300310A50CFB
:10035800FF3E031DAA29250895000A128A11322298
:100368000A128A110A128A11CE210A128A11013A36
:100378000319C929523083120313A6002930A50096
:10038800A50BC429A60BC429B62983120313970108
:100398000711080083120313A301A4019F148312F9
:1003A80003130C1FD3290C131E08A0002008A30058
:1003B8002A08033EA000003003180130A1002108DC
:1003C800803AA20080302202031DEC292308200273
:1003D8000318F22983120313A401A40A8312031336
:1003E800240808007908013983120313A000A00E1D
:1003F8001D082006EF3920069D007908A00003108B
:10040800200C0139A100A10EA10D1D082106DF391C
:1004180021069D007908A00002300310A00CFF3EC1
:10042800031D112A20089B0008000C1F272A0C1303
:100438001E08F0007008AB005330F000F00B222AC1
:10044800831203139F147408FF0073088A0072084C
:100458008400710E8300FE0E7E0E090083120313C2
:10046800A1019F14831203130C1F362A0C131E08B4
:10047800A0002008A1002108A0002008AA00210847
:080488008800080014346434FC
:04400E00F4E0FFFFDC
:00000001FF
