:060000000A128A11122809
:10000800FE00030EF0000408F1000A08F200831253
:1000180003137F08F3000A128A1163290A128A114E
:1000280015280A128A116E21AF00AC01AD01AE018C
:10003800F601F701F80183010A128A1123288316B1
:1000480003130F150F168F160F178F110F14023089
:100058008500393086001930870088018316031718
:100068008801013089008312031388018501860104
:10007800831603139F121F129F130C17831603175F
:100088000916831203139F171F139F161F169F111C
:100098001F11831603139E01831203139E011F145D
:1000A800033083120313AB009730AA00AA0B5A2817
:1000B800AB0B5A2840308316031394003430831254
:1000C800031394000A128A11A9200A128A110A122B
:1000D8008A1138210A128A1183160313141C7C28EA
:1000E800831203131308AA002A08AE002E088800FA
:1000F80083122E03031D88280A128A11A9200A12C6
:100108008A1183120313930002302E06031D9428CC
:100118000A128A1138210A128A11831203139300D2
:1001280003302E06031D662883160313141C982813
:10013800831203131308AA002A08AF002F080A1213
:100148008A114E210A128A11662883120313A80104
:10015800A901A70105100630F500F50BB12800002C
:100168008312031305140630F500F50BB9280000B7
:10017800831203130510A801A9018518CF28BF28E9
:10018800C528831203132808013EA800290803186C
:10019800013E003EA9008518C4280B30A00000309D
:1001A800A1002908A3002808A2000A128A11FA202F
:1001B8000A128A11831203132108A9002008A80033
:1001C800003029024C30031928020318EF28A70130
:1001D800A70A0730F32883120313A70100300A1275
:1001E8008A114E2183120313270808008312031370
:1001F800A501A6012008210403193329A401A40A92
:10020800A11B122901300310A00DA10DFF3E031DF3
:1002180007290130F4007408A407042901300310E9
:10022800A50DA60DFF3E031D132921082302031D5A
:100238001F2920082202031C28292008A2022108BD
:10024800031CA303A302251401300310A10CA00C66
:10025800FF3E031D29290130A402031D1229260887
:10026800A1002508A0000800F501831203139F14BC
:10027800831203130C1B422941293C290C131E0825
:10028800F4007408F50075088D3EF4007408F50054
:1002980075080800F400741C55298312031385158A
:1002A8005829831203138511741C5C2905155D29CF
:1002B8000511741C61290516080005120800730849
:1002C800FF0072088A0071088400700E8300FE0E19
:0602D8007E0E0900073450
:04400E00F4E0FFFFDC
:00000001FF
