:060000000A128A11122809
:10000800FE00030EF0000408F1000A08F200831253
:1000180003137F08F3000A128A1153280A128A115F
:100028001528F60183010A128A111A288316031368
:100038000F150F168F160F178F110F14023085002A
:100048000130860088018316031788010130890072
:1000580083120313880185018601831603139F12F7
:100068001F129F130C178316031709168312031305
:100078009F171F139F161F169F111F118316031317
:100088009E01831203139E011F140330F50097305D
:10009800F400F40B4D28F50B4D285228522873080C
:1000A800FF0072088A0071088400700E8300FE0E3B
:0400B8007E0E0900AF
:04400E00F4E0FFFFDC
:00000001FF
