:060000000A128A11122809
:10000800FE00030EF2000408F3000A08F40083124D
:1000180003137F08F5000A128A1125290A128A118A
:1000280015280A128A115821B000AD01AE01AF019E
:10003800F70183010A128A118F2883120313A90179
:10004800AA01A8010510053083120313A700A70B06
:100058002B282E288312031305140530831203134B
:10006800A700A70B35283828831203130510A90108
:10007800AA0185184B283B28412883120313290815
:10008800013EA9002A080318013E003EAA0085186F
:1000980040280B30A0000030A1002A08A30029083E
:1000A800A2000A128A11E7200A128A118312031386
:1000B8002108AA002008A90000302A024C300319A0
:1000C800290203187228A801A80A30080A128A11FE
:1000D800432183120313AD01AE0108000130AD07BF
:1000E8000318AE0A0030AE072E08803AFF008130B0
:1000F8007F02031D8128F5302D02031C080083129E
:100108000313A80100300A128A1143218312031332
:10011800AD01AE0108007C30831603138F008316EF
:10012800031788018901F030831603138600D9303C
:100138008700E230850088018312031330080A1211
:100148008A1143210A128A1140308316031394003E
:1001580034308312031394001A3083120313AC0053
:10016800F730AB00AB0BB628AC0BB628BB280A128D
:100178008A1121200A128A1183160313141CD62807
:10018800831203131308AB002B08AF002F08880055
:100198002F08AB002B08B00030080A128A1143213F
:1001A8000A128A110330831203132F06031DB02885
:1001B80083160313141CDC28831203131308AB00E3
:1001C8002B08B000B02883120313A401A50120084E
:1001D800210403192029A601A60AA11BFF28013022
:1001E8000310A00DA10DFF3E031DF4280130F600F9
:1001F8007608A607F12801300310A40DA50DFF3ECF
:10020800031D002921082302031D0C2920082202AE
:10021800031C15292008A2022108031CA303A3021A
:10022800241401300310A10CA00CFF3E031D162955
:100238000130A602031DFF282508A1002408A000FC
:1002480008000C1F38290C131E08F0007008F7006E
:100258000630F1003030F000F00B3029F10B302976
:100268000000831203139F147508FF0074088A00A6
:1002780073088400720E8300FE0E7E0E0900F600DD
:10028800761C4A298312031305154D29831203137B
:100298000511F61C5129851552298511761D5629F7
:0A02A80005160800051208000734CF
:04400E00F4E0FFFFDC
:00000001FF
