:060000000A128A11122809
:10000800FE00030EF4000408F5000A08F600831247
:1000180003137F08F7000A128A11FB2E0A128A11AD
:100028001528F801F901FA01FB01FC01FD0183160D
:100038000313A001A101A201A301A401A501A60126
:10004800A701A801A90183010A128A159B2E7D0325
:10005800031D75287A087B04031D7528FD010130EE
:1000680083120313A2000030A3000A128A154D263A
:100078000A128A11063083120313BC002F30BB000A
:10008800BB0B4428BC0B4428492880308312031337
:10009800A2000030A3000A128A154D260A128A11FE
:1000A800603083120313A7008030A8000A128A1553
:1000B80046250A128A11C03083120313A2000030A9
:1000C800A3000A128A154D260A128A11703083126B
:1000D8000313A7008030A8000A128A1546250A12C1
:1000E8008A1102307D06031DF3287A087B04031D5C
:1000F800F328FD01013083120313A2000030A3008E
:100108000A128A154D260A128A1106308312031321
:10011800BC002F30BB00BB0B8F28BC0B8F2894284A
:10012800803083120313A2000030A3000A128A153C
:100138004D260A128A119B3083120313A7008030C0
:10014800A8000A128A1546250A128A11C03083129D
:100158000313A2000030A3000A128A154D260A12C2
:100168008A11E43083120313A7008030A8000A1212
:100178008A1546250A128A110A128A1524250A1296
:100188008A11E93083120313BB003B08AE008316C3
:100198000313260883120313BC00BD013C08AF00FB
:1001A8003D08B0003E300A128A152A270A128A1121
:1001B8003E3083120313A7000030A8000A128A15E4
:1001C80046250A128A11DF300A128A1570250A128A
:1001D8008A1143300A128A1570250A128A117D0382
:1001E800031DB4297B08803AFF0080307F02031D7D
:1001F800FF2801307A02031CB429FD010130831263
:100208000313A2000030A3000A128A154D260A1211
:100218008A11063083120313BC002F30BB00BB0BBE
:100228001329BC0B13291829803083120313A20049
:100238000030A3000A128A154D260A128A11C53009
:1002480083120313A7008030A8000A128A154625D6
:100258000A128A11C03083120313A2000030A300CF
:100268000A128A154D260A128A11E43083120313E2
:10027800A7008030A8000A128A1546250A128A119A
:10028800E93083120313BB003B08AE007B08B000C3
:100298007A08AF004C300A128A152A270A128A11E6
:1002A800E93083120313BB003B08AE007B08B000A3
:1002B8007A08AF005C300A128A152A270A128A11B6
:1002C80083120313EC016C084C3E8400831300086E
:1002D800031973290130BB003B08EC07672902307A
:1002E8006C06031D7C293030BB003B08DC00DD01B7
:1002F80003306C02031C85296C08FE3E5C3E8400BA
:1003080080015C30A7000030A8000A128A15462533
:100318000A128A112E300A128A1570250A128A11B9
:10032800831203136C08FE3E4C3E840083130008BE
:100338000A128A1570250A128A11831203136C088F
:10034800FF3E4C3E8400831300080A128A1570256C
:100358000A128A1151300A128A1570250A128A1156
:1003680003307D06031DFF29FD0183160313A40135
:10037800A501013083120313A2000030A3000A1262
:100388008A154D260A128A11063083120313BC00FF
:100398002F30BB00BB0BCE29BC0BCE29D329803014
:1003A80083120313A2000030A3000A128A154D26F7
:1003B8000A128A110B3083120313A7008030A80099
:1003C8000A128A1546250A128A11C03083120313AD
:1003D800A2000030A3000A128A154D260A128A11BB
:1003E800CD3083120313A7008030A8000A128A15A3
:1003F80046250A128A1104307D06031D4A2AFD018A
:1004080083160313A401A501013083120313A2006C
:100418000030A3000A128A154D260A128A110630E6
:1004280083120313BC002F30BB00BB0B192ABC0B73
:10043800192A1E2A803083120313A2000030A30059
:100448000A128A154D260A128A11A830831203133C
:10045800A7008030A8000A128A1546250A128A11B8
:10046800C03083120313A2000030A3000A128A15B9
:100478004D260A128A11D53083120313A700803043
:10048800A8000A128A1546250A128A1105307D0627
:10049800031D952AFD0183160313A401A50101304C
:1004A80083120313A2000030A3000A128A154D26F6
:1004B8000A128A11063083120313BC002F30BB00C6
:1004C800BB0B642ABC0B642A692A8030831203138D
:1004D800A2000030A3000A128A154D260A128A11BA
:1004E8002D3083120313A7008030A8000A128A1542
:1004F80046250A128A11C03083120313A200003065
:10050800A3000A128A154D260A128A114F30831247
:100518000313A7008030A8000A128A1546250A127C
:100528008A1106307D06031DE02AFD018316031398
:10053800A401A501013083120313A2000030A30017
:100548000A128A154D260A128A11063083120313DD
:10055800BC002F30BB00BB0BAF2ABC0BAF2AB42AA0
:10056800803083120313A2000030A3000A128A15F8
:100578004D260A128A118D3083120313A70080308A
:10058800A8000A128A1546250A128A11C030831259
:100598000313A2000030A3000A128A154D260A127E
:1005A8008A113E3083120313A7008030A8000A1274
:1005B8008A1546250A128A1107307D06031D6F2BFE
:1005C800FD0183160313A401A5010130831203134F
:1005D800A2000030A3000A128A154D260A128A11B9
:1005E800063083120313BC002F30BB00BB0BFA2A62
:1005F800BC0BFA2AFF2A803083120313A2000030B2
:10060800A3000A128A154D260A128A11B2308312E3
:100618000313A7008030A8000A128A1546250A127B
:100628008A11E93083120313BB003B08AE0083161E
:100638000313270883120313BC00BD013C08AF0055
:100648003D08B00044300A128A152A270A128A1176
:10065800443083120313A7000030A8000A128A1539
:1006680046250A128A11C03083120313A2000030F3
:10067800A3000A128A154D260A128A11BC30831269
:100688000313A7008030A8000A128A1546250A120B
:100698008A11E93083120313BB003B08AE008316AE
:1006A8000313280883120313BC00BD013C08AF00E4
:1006B8003D08B00044300A128A152A270A128A1106
:1006C800443083120313A7000030A8000A128A15C9
:1006D80046250A128A1108307D06031D0800FD010F
:1006E80083160313A401A501013083120313A2008A
:1006F8000030A3000A128A154D260A128A11063004
:1007080083120313BC002F30BB00BB0B892BBC0B1F
:10071800892B8E2B803083120313A2000030A30094
:100728000A128A154D260A128A111C3083120313E5
:10073800A7008030A8000A128A1546250A128A11D5
:10074800C03083120313A2000030A3000A128A15D6
:100758004D260A128A11E43083120313A700803051
:10076800A8000A128A1546250A128A11E93083124E
:100778000313BB003B08AE00831603132108831242
:100788000313B00083160313200883120313AF006A
:1007980054300A128A152A270A128A11E93083125C
:1007A8000313BB003B08AE00831603132108831212
:1007B8000313B00083160313200883120313AF003A
:1007C80064300A128A152A270A128A11831203131F
:1007D800ED016D08543E8400831300080319F92BBA
:1007E8000130BB003B08ED07ED2B02306D06031D01
:1007F800022C3030BB003B08E400E50103306D02F9
:10080800031C0B2C6D08FE3E643E8400800164309E
:10081800A7000030A8000A128A1546250A128A1174
:100828002E300A128A1570250A128A1183120313B0
:100838006D08FE3E543E8400831300080A128A1590
:1008480070250A128A11831203136D08FF3E543E65
:100858008400831300080A128A1570250A128A1167
:1008680051300A128A157025080078037904031D8F
:100878007C03031D8F2C053083120313EE006E08D2
:10088800FD000A128A112B200A128A11F801F901B7
:10089800822C0A128A15E1240A128A11780879042E
:1008A8000319752C0630780679040319752C780815
:1008B8000A128A15C5240A128A118030831203137A
:1008C800A2000030A3000A128A154D260A128A11C6
:1008D8007808303E0A128A1570250A128A11F80122
:1008E800F9017C080319832C06307C060319832C34
:1008F8007C080A128A15C5240A128A11FC010630DE
:100908007806790403198C2C06307C06031D4D2CBF
:10091800FC01F801F9010230780679040319982CD2
:1009280002307C06031DAC2C033083120313EE0047
:100938006E08FD000A128A112B200A128A11FE3055
:1009480083120313890001309300F801F901FC01B7
:100958000330780679040319B52C03307C06031D8F
:10096800C92C043083120313EE006E08FD000A122E
:100978008A112B200A128A11FE3083120313890070
:1009880002309300F801F901FC010430780679047B
:100998000319D22C04307C06031D102D0630831257
:1009A8000313EE006E08FD000A128A112B200A12AA
:1009B8008A11012D0A128A15E1240A128A11780374
:1009C8007904031D7C03031DF22CFE3083120313EC
:1009D800890003309300F801F901FC010230780620
:1009E80079040319FB2C02307C06031D042DFE300C
:1009F80083120313890004309300F801F901FC0104
:100A080006307806790403190D2D06307C06031D7F
:100A1800DE2CF801F901FC01053078067904031988
:100A2800192D05307C06031D272D0730831203136B
:100A3800EE006E08FD000A128A112B200A128A1194
:100A4800F801F901FC010630780679040319302D04
:100A580006307C06031D0800083083120313EE00DD
:100A68006E08FD000A128A112B20F801F901FC0119
:100A780008001A3083120313AC00F730AB00AB0B3D
:100A8800432DAC0B432D482D03300A128A1502253D
:100A98000A128A11063083120313AC002F30AB0000
:100AA800AB0B542DAC0B542D592D03300A128A155B
:100AB80002250A128A1103300A128A1502250A121F
:100AC8008A11063083120313AC002F30AB00AB0B36
:100AD8006B2DAC0B6B2D702D02300A128A15022576
:100AE8000A128A11063083120313AC002F30AB00B0
:100AF800AB0B7C2DAC0B7C2D812D2830831203137E
:100B0800A2000030A3000A128A154D260A128A1183
:100B1800063083120313AC002F30AB00AB0B922DC1
:100B2800AC0B922D972D083083120313A2000030CE
:100B3800A3000A128A154D260A128A11063083125A
:100B48000313AC002F30AB00AB0BA82DAC0BA82DBA
:100B5800AD2D013083120313A2000030A3000A1246
:100B68008A154D260A128A11063083120313AC0027
:100B78002F30AB00AB0BBE2DAC0BBE2DC32D0630FA
:100B880083120313A2000030A3000A128A154D260F
:100B98000A128A11063083120313AC002F30AB00FF
:100BA800AB0BD42DAC0BD42DD92D0C3083120313E1
:100BB800A2000030A3000A128A154D260A128A11D3
:100BC800063083120313AC002F30AB00AB0BEA2DB9
:080BD800AC0BEA2DEF2D080023
:100C0000FF1B0A2E83137F1883170008840A031919
:100C1000FF0A080006308A000408840A82070034AC
:100C2000013400340A34003464340034E8340334CA
:100C3000103427344434453453345034413443342D
:100C400048344F34203442344534423449344434F7
:100C500041343A340034443449344E344534523407
:100C60004F3420344D344F344E34453444344534BD
:100C700052344F343A340034433441344D344234E6
:100C800049344F3420344434453420344C345534C2
:100C90004334453453343A34003431342E344F34F1
:100CA0005034203432342E3443344C3420343634EF
:100CB0002E344534583449345434003431342C34CF
:100CC00032342C3433342C3434342C3435342C3406
:100CD00036342E344534583449345434003448348E
:100CE0006F346C346134213421342134203449345C
:100CF0006E3473346534723474346534003475344E
:100D00006E34613420346D346F346E346534643441
:100D1000613420342D342D343E340034423469346F
:100D200065346E34763465346E34693464346F34CB
:100D300021342134213400344D344F345634453479
:100D400052342034503455344534523454344134C0
:100D50003A340034543465346D347034653472344C
:100D6000613474347534723461343A340034443448
:100D70004534533450344134433448344F343A3496
:100D80000034543461346D347034693463346F34F6
:100D900073343D34003454346F34723474347234E8
:100DA000693478343D340034443469346E34653405
:100DB00072346F343A340034543461346D347034E6
:100DC000693463346F34003454346F34723474349F
:100DD000723469347834003443346D3461346D34A2
:100DE0007534743400342D342D343E3420340034C2
:100DF0002534643400340B1C9D2F06180F2F193036
:100E0000FA070318FB0A0030FB0719308316031397
:100E1000A0070318A10A0030A107FD01FD0A8312F3
:100E20008618222F3230FA070318FB0A0030FB071E
:100E3000323083160313A0070318A10A0030A1075C
:100E4000FD01FD0A83120619352F6430FA070318D5
:100E5000FB0A0030FB07643083160313A007031856
:100E6000A10A0030A107FD01FD0A83128619682F2F
:100E70007B08803AFF0081307F02031D412F5E30E6
:100E80007A02031C682F0130F100710883160313E6
:100E9000A707A230FA070318FB0AFE30FB07FE3053
:100EA0008312031389000330F1007108FD00013043
:100EB0009300013088000630F3001330F200AD30AB
:100EC000F100F10B612FF20B612FF30B612F682FF3
:100ED00083120313061A9C2F7B08803AFF00803090
:100EE0007F02031D752FC8307A02031C9C2F01302E
:100EF000F100710883160313A8073830FA070318A6
:100F0000FB0AFF30FB07FE30831203138900043015
:100F1000F1007108FD0002309300023088000630B5
:100F2000F3001330F200AD30F100F10B952FF20B0E
:100F3000952FF30B952F9C2F0B10831203138C1EF0
:100F4000A62F1A08F1007108FC008C128C1CD92FF6
:100F50008C10013083160313A2070318A30A003074
:100F6000A3070130A4070318A50A0030A507F43031
:100F70002406031DC02F2503031DC02FFD01FD0AFC
:100F8000E8302406033003192506031DCD2F023057
:100F9000F1007108FD00A401A501323022062304EE
:100FA000031DD92FA201A3010A128A150E260A12C7
:100FB0008A11770883120313FF0076088A007508E8
:100FC0008400740E8300FE0E7E0E0900F00083166E
:100FD0000313981CE72F700883120313990008006D
:10198A0083120313A200FD3089000230A000200850
:10199A00A20703309300033083120313A100973088
:1019AA00A000A00BD62CA10BD62C8312031322085D
:1019BA0093002208880008008312031307180800FE
:1019CA001014033083120313A2000830A1007630EA
:1019DA00A000A00BEE2CA10BEE2CA20BEE2C00000B
:1019EA008312031310100E08A000A1012008F800AA
:1019FA002108F9008E011014080083120313A100B4
:101A0A00210820388500023083120313A000A00B9E
:101A1A000C2D000083120313851202308312031364
:101A2A00A000A00B162D00008312031385160230A6
:101A3A0083120313A000A00B202D00000800FD3024
:101A4A0083120313890002309300023083120313B6
:101A5A00A2000430A100B930A000A00B322DA10BC6
:101A6A00322DA20B322D392D83160313141C0800B4
:101A7A00831203131308A000200883160313A60079
:101A8A00080083120313AA012A08270784002808DA
:101A9A000318280AFF000A128A1100260A128A1558
:101AAA00003A031908002A0827078400280803189F
:101ABA00280AFF000A128A1100260A128A150A1237
:101ACA008A1570250A128A15013083120313A90098
:101ADA002908AA07492D83120313A60026080F39DD
:101AEA00A2002208A4002608A20004300310A20CB7
:101AFA00FF3E031D7B2D2208A3002308A50025080D
:101B0A00103E0A128A1502250A128A158312031335
:101B1A002408103E0A128A1502250A128A15203054
:101B2A0083120313A200A20B982D0000080083124F
:101B3A000313280829040319CB2DAD01AD0AA91BEB
:101B4A00B22D01300310A80DA90DFF3E031DA72DCC
:101B5A000130AC002C08AD07A42D29082B02031D67
:101B6A00B82D28082A02031CC02D2808AA02290811
:101B7A00031CAB03AB0201300310A90CA80CFF3EF7
:101B8A00031DC12D0130AD02031DB22D2B08A90082
:101B9A002A08A800080083120313A501A601200839
:101BAA0021040319092EA701A70AA11BE82D013058
:101BBA000310A00DA10DFF3E031DDD2D0130A40071
:101BCA002408A707DA2D01300310A50DA60DFF3E44
:101BDA00031DE92D21082302031DF52D20082202E9
:101BEA00031CFE2D2008A2022108031CA303A30242
:101BFA00251401300310A10CA00CFF3E031DFF2D7C
:101C0A000130A702031DE82D2608A1002508A0001F
:101C1A000800FF300A128A11E6270A128A1583166B
:101C2A00031326080A128A11E6270A128A1583164E
:101C3A00031328080A128A11E6270A128A1583163C
:101C4A00031327080A128A11E6270A128A157B0843
:101C5A000A128A11E6270A128A157A080A128A11C2
:101C6A00E6270A128A158316031321080A128A1113
:101C7A00E6270A128A158316031320080A128A1104
:101C8A00E6270A128A1561300A128A11E627080025
:101C9A00831203132308A5002208A4000930FF00B9
:101CAA00250DA50CA40CFF0B552E2408A60026080A
:101CBA00A9002208A4002408AA002A080F39A400AF
:101CCA002408A7002A08A40004300310A40CFF3E2D
:101CDA00031D6A2E2408A5002508A8002908A400C7
:101CEA0004300310A40DFF3E031D762E2808240796
:101CFA000A128A1502250A128A1583120313290861
:101D0A00A40004300310A40DFF3E031D872E2708EC
:101D1A0024070A128A1502250A128A15203083120C
:101D2A000313A400A40B972E000008007C3083162E
:101D3A0003138F008316031788018901C0308316A5
:101D4A0003138500FF308600D73087008801890198
:101D5A00831203138801FF3089000A128A113D2574
:101D6A000A128A15803083120313A2000030A300DE
:101D7A000A128A154D260A128A157F308312031316
:101D8A00A7008030A8000A128A1546250A128A1569
:101D9A00C03083120313A2000030A3000A128A156E
:101DAA004D260A128A15DD3083120313A7008030EC
:101DBA00A8000A128A1546250A128A151F308316A8
:101DCA00031396001F3095000B108B158113831295
:101DDA0003138E018F01073090009B308316031383
:101DEA0092007F308312031392008C108316031320
:101DFA008C144030940032308312031394008316FB
:101E0A0003131812181198168316031787110C302A
:101E1A008316031399009A01831203139817181350
:101E2A0018160B178B170B17EF010A128A112B20A2
:101E3A000A128A150A128A15E1240A128A150A1246
:101E4A008A1139240A128A151A2F83120313B90028
:101E5A002F30B1003108B4000130AE07FF302E0731
:101E6A0084000A128A110A260A128A15B100310858
:101E7A00BA003A080319FB2F25303A060319512FE5
:101E8A003A08B10039088400310883138000013010
:101E9A00B1003108B907312FB5010130AE07FF3063
:101EAA002E0784000A128A110A260A128A15BA0013
:101EBA00003A0319FB2F643A0319672F0D3A0319E5
:101ECA00672F312F3408840083130008B700840A6F
:101EDA000008B8000230B1003108B407B81F7E2FDD
:101EEA000330B1003108B504B709B809B70A0319B4
:101EFA00B80ABA01BA0A05303A060319A52F3A08F0
:101F0A00B1003107013E84000A128A110A260A1218
:101F1A008A15B2000A128A110A260A128A15B30011
:101F2A0033083802031D9B2F32083702031CA52FE2
:101F3A000130B1003108BA0705303A06031D842F73
:101F4A00350803390319B42F2D30B100390884003C
:101F5A003108831380000130B1003108B9073A080B
:101F6A00B1003108B600FF30B1003108B607360AB1
:101F7A000319312F0A30A8000030A9003608B10031
:101F8A003107013E84000A128A110A260A128A15AA
:101F9A00A0000A128A110A260A128A15A100380814
:101FAA00A3003708A2000A128A15D0250A128A1538
:101FBA00831203132108AB002008AA000A128A150B
:101FCA009C250A128A15831203132808303EB20090
:101FDA003208BA003A08B10039088400310883137C
:101FEA0080000130B1003108B907B82F39088400E0
:061FFA00831380010800C2
:04400E00F4E0FFFFDC
:00000001FF
