:060000000A128A11122809
:10000800FE00030EF2000408F3000A08F40083124D
:1000180003137F08F5000A128A11BC2B0A128A11F1
:100028001528F701D501D601D701D801D901DA0180
:1000380083010A128A11F22C831203135A03031D37
:100048006A2855085604031D6A28DA010130A10000
:100058000030A2000A128A115D250A128A110630A0
:1000680083120313BB002F30BA00BA0B3928BB0B1D
:1000780039283E28803083120313A1000030A200E3
:100088000A128A115D250A128A111C308312031381
:10009800A6008030A7000A128A1149260A128A117E
:1000A800C03083120313A1000030A2000A128A1183
:1000B8005D250A128A112C3083120313A6008030A2
:1000C800A7000A128A1149260A128A1102308312DD
:1000D80003135A06031DDF2855085604031DDF289D
:1000E800DA010130A1000030A2000A128A115D2550
:1000F8000A128A11063083120313BB002F30BA008C
:10010800BA0B8428BB0B84288928803083120313F8
:10011800A1000030A2000A128A115D250A128A1174
:10012800493083120313A6008030A7000A128A11EF
:1001380049260A128A11C03083120313A100003025
:10014800A2000A128A115D250A128A117F308312D1
:100158000313A6008030A7000A128A1149260A1242
:100168008A11843083120313BA003A08AD00590883
:10017800BB00BC013B08AE003C08AF003D300A1292
:100188008A1133220A128A113D3083120313A60002
:100198000030A7000A128A1149260A128A11DF3094
:1001A8000A128A111D260A128A1143300A128A116C
:1001B8001D260A128A11831203135A03031DA2294A
:1001C8005608803AFF0080307F02031DED28013079
:1001D8005502031CA22983120313DA010130A1007E
:1001E8000030A2000A128A115D250A128A1106300F
:1001F80083120313BB002F30BA00BA0B0129BB0BC3
:1002080001290629803083120313A1000030A200BF
:100218000A128A115D250A128A11603083120313AB
:10022800A6008030A7000A128A1149260A128A11EC
:10023800C03083120313A1000030A2000A128A11F1
:100248005D250A128A117F3083120313A6008030BD
:10025800A7000A128A1149260A128A1184308312C9
:100268000313BA003A08AD005608AF005508AE00AF
:1002780043300A128A1133220A128A1184308312F7
:100288000313BA003A08AD005608AF005508AE008F
:100298004B300A128A1133220A128A11831203136D
:1002A800D3015308433E84008313000803196129CE
:1002B8000130BA003A08D307552902305306031D06
:1002C8006A293030BA003A08CB00CC010330530217
:1002D800031C73295308FE3E4B3E840080014B30BB
:1002E800A6000030A7000A128A1149260A128A11AC
:1002F8002E300A128A111D260A128A11831203133C
:100308005308FE3E433E8400831300080A128A11F4
:100318001D260A128A11831203135308FF3E433E17
:100328008400831300080A128A111D260A128A11F2
:1003380051300A128A111D260A128A1103308312BB
:1003480003135A06031DEB29DA01D701D80101303E
:10035800A1000030A2000A128A115D250A128A1132
:10036800063083120313BB002F30BA00BA0BBA2928
:10037800BB0BBA29BF29803083120313A1000030B8
:10038800A2000A128A115D250A128A110B30831203
:100398000313A6008030A7000A128A1149260A1200
:1003A8008A11C03083120313A1000030A2000A1280
:1003B8008A115D250A128A11683083120313A60078
:1003C8008030A7000A128A1149260A128A110430BD
:1003D800831203135A06031D0800DA01D701D80156
:1003E8000130A1000030A2000A128A115D250A120C
:1003F8008A11063083120313BB002F30BA00BA0BE0
:10040800032ABB0B032A082A803083120313A10096
:100418000030A2000A128A115D250A128A1156308C
:1004280083120313A6008030A7000A128A114926F6
:100438000A128A11C03083120313A1000030A200EF
:100448000A128A115D250A128A1170308312031369
:10045800A6008030A7000A128A11492608008312D4
:100468000313B8002E30B0003008B3000130AD07D8
:10047800FF302D0784000A128A1166240A128A1195
:10048800B0003008B90039080319042B25303906A3
:1004980003195A2A3908B000380884003008831331
:1004A80080000130B0003008B8073A2AB4010130A2
:1004B800AD07FF302D0784000A128A1166240A123C
:1004C8008A11B900003A0319042B643A0319702AF7
:1004D8000D3A0319702A3A2A330884008313000856
:1004E800B600840A0008B7000230B0003008B3072D
:1004F800B71F872A0330B0003008B404B609B7091B
:10050800B60A0319B70AB901B90A05303906031939
:10051800AE2A3908B0003007013E84000A128A1159
:1005280066240A128A11B1000A128A1166240A1274
:100538008A11B20032083702031DA42A3108360294
:10054800031CAE2A0130B0003008B907053039065F
:10055800031D8D2A340803390319BD2A2D30B00034
:10056800380884003008831380000130B000300858
:10057800B8073908B0003008B500FF30B0003008BF
:10058800B507350A03193A2A0A30A7000030A8002F
:100598003508B0003007013E84000A128A1166242B
:1005A8000A128A11A0000A128A1166240A128A11F4
:1005B800A1003708A3003608A2000A128A11AB2549
:1005C8000A128A11831203132108AA002008A9001D
:1005D8000A128A11E9250A128A11831203132708BD
:1005E800303EB1003108B9003908B000380884003D
:1005F8003008831380000130B0003008B807C12AE2
:10060800380884008313800108001A30831203130A
:10061800AB00F730AA00AA0B0F2BAB0B0F2B142B38
:1006280003300A128A1173260A128A1106308312BD
:100638000313AB002F30AA00AA0B202BAB0B202BE7
:10064800252B03300A128A1173260A128A110330E5
:100658000A128A1173260A128A11063083120313AA
:10066800AB002F30AA00AA0B372BAB0B372B3C2B38
:1006780002300A128A1173260A128A11063083126E
:100688000313AB002F30AA00AA0B482BAB0B482B47
:100698004D2B283083120313A1000030A2000A1248
:1006A8008A115D250A128A11063083120313AB00E2
:1006B8002F30AA00AA0B5E2BAB0B5E2B632B0830E6
:1006C80083120313A1000030A2000A128A115D25CB
:1006D8000A128A11063083120313AB002F30AA00C6
:1006E800AA0B742BAB0B742B792B013083120313D9
:1006F800A1000030A2000A128A115D250A128A118F
:10070800063083120313AB002F30AA00AA0B8A2BE2
:10071800AB0B8A2B8F2B063083120313A1000030FA
:10072800A2000A128A115D250A128A110630831264
:100738000313AB002F30AA00AA0BA02BAB0BA02BE6
:10074800A52B0C3083120313A1000030A2000A125B
:100758008A115D250A128A11063083120313AB0031
:100768002F30AA00AA0BB62BAB0BB62BBB2B08005D
:100778000B1C1D2C0618C82B1930D5070318D60AD0
:100788000030D607DA01DA0A8618D22B3230D507BC
:100798000318D60A0030D607DA01DA0A0619DC2B64
:1007A8006430D5070318D60A0030D607DA01DA0A0A
:1007B8008619FB2B5608803AFF0081307F02031D03
:1007C800E72B5E305502031CFB2BA2308312031368
:1007D800D5070318D60AFE30D607FE308900033045
:1007E800F0007008DA0001309300013088008312AD
:1007F8000313061A1C2C5608803AFF0080307F022B
:10080800031D082CC8305502031C1C2C38308312D9
:100818000313D5070318D60AFF30D607FE30890020
:100828000430F0007008DA000230930002308800CB
:100838000B10831203130C1F322C0C131E08F0002C
:100848007008F7000630F1003030F000F00B2A2C69
:10085800F10B2A2C0000831203139F148C1C512CBB
:100868008C100130D7070318D80A0030D807F430A5
:100878005706031D442C5803031D442CDA01DA0AD9
:10088800E8305706033003195806031D512C02306F
:10089800F0007008DA00D701D8017508FF00740865
:1008A8008A0073088400720E8300FE0E7E0E090013
:1008B800FF1B662C83137F1883170008840A03190B
:1008C800FF0A080004308A000408840A82070034FA
:1008D800013400340A34003464340034E834033416
:1008E8001034273444344534533450344134433479
:1008F80048344F3420344234453442344934443443
:1009080041343A34003448346F346C34613421341F
:1009180021342134203449346E34733465347234CC
:1009280074346534003475346E34613420346D3475
:100938006F346E3465346434613420342D342D348E
:100948003E3400344234693465346E347634653468
:100958006E34693464346F342134213421340034E2
:10096800543465346D34703465347234613474349D
:100978007534723461343A34003444344534533471
:1009880050344134433448344F343A3400344434D6
:1009980069346E34653472346F343A340034543404
:1009A80061346D347034693463346F3400345434D2
:1009B8006F347234743472346934783400344334A4
:1009C8006D3461346D347534743400342D342D3401
:1009D8003E34203400342534643400347C308316AB
:1009E80003138F008316031788018901C03083160B
:1009F80003138500FF308600D730870088018901FE
:100A0800831203138801FF3089000A128A1109230F
:100A18000A128A11803083120313A1000030A20049
:100A28000A128A115D250A128A113B3083120313B8
:100A3800A6008030A7000A128A1149260A128A11D4
:100A4800C03083120313A1000030A2000A128A11D9
:100A58005D250A128A11783083120313A6008030AC
:100A6800A7000A128A1149260A128A111F30831612
:100A7800031396001F3095000B108B1581139B30C4
:100A880092007F308312031392008C108316031395
:100A98008C144030940032308312031394000B17E7
:100AA8008B170B17D4010A128A1120200A128A11F7
:100AB800572D831203132208A4002108A30009302C
:100AC800FF00240DA40CA30CFF0B652D2308A50023
:100AD8002508A8002108A3002308A90029080F3920
:100AE800A3002308A6002908A30004300310A30CC0
:100AF800FF3E031D7A2D2308A4002408A700280818
:100B0800A30004300310A30DFF3E031D862D270804
:100B180023070A128A1173260A128A1183120313F1
:100B28002808A30004300310A30DFF3E031D972DD2
:100B3800260823070A128A1173260A128A112030FE
:100B480083120313A300A30BA72D00000800831230
:100B58000313A401A501200821040319E42DA6010B
:100B6800A60AA11BC32D01300310A00DA10DFF3E45
:100B7800031DB82D0130F6007608A607B52D013003
:100B88000310A40DA50DFF3E031DC42D210823024B
:100B9800031DD02D20082202031CD92D2008A202F3
:100BA8002108031CA303A302241401300310A10C81
:100BB800A00CFF3E031DDA2D0130A602031DC32D34
:100BC8002508A1002408A0000800831203132708A1
:100BD80028040319182EAC01AC0AA81BFF2D0130FC
:100BE8000310A70DA80DFF3E031DF42D0130AB0027
:100BF8002B08AC07F12D28082A02031D052E27080B
:100C08002902031C0D2E2708A9022808031CAA0381
:100C1800AA0201300310A80CA70CFF3E031D0E2EDC
:100C28000130AC02031DFF2D2A08A8002908A700DF
:100C3800080083120313A50025080F39A100210815
:100C4800A3002508A10004300310A10CFF3E031DDA
:100C5800282E2108A2002208A4002408103E0A1207
:100C68008A1173260A128A11831203132308103E6D
:100C78000A128A1173260A128A112030831203136A
:100C8800A100A10B452E0000080083120313A9013F
:100C980029082607840027080318270AFF000A12D4
:100CA8008A115C240A128A11003A031908002908DB
:100CB8002607840027080318270AFF000A128A114A
:100CC8005C240A128A110A128A111D260A128A1134
:100CD800013083120313A8002808A9074C2E831299
:100CE8000313A0002008203885000330F600F60B17
:100CF8007B2E8312031385120330F600F60B822E27
:100D08008312031385160330F600F60B892E0800AC
:04400E00F4E0FFFFDC
:00000001FF
